{
  "_format": "hh-sol-artifact-1",
  "contractName": "SheWell",
  "sourceName": "contracts/SheWell.sol",
  "abi": [
    {
      "inputs": [],
      "stateMutability": "nonpayable",
      "type": "constructor"
    },
    {
      "anonymous": false,
      "inputs": [
        {
          "indexed": true,
          "internalType": "address",
          "name": "previousOwner",
          "type": "address"
        },
        {
          "indexed": true,
          "internalType": "address",
          "name": "newOwner",
          "type": "address"
        }
      ],
      "name": "OwnershipTransferred",
      "type": "event"
    },
    {
      "inputs": [
        {
          "internalType": "string",
          "name": "_title",
          "type": "string"
        },
        {
          "internalType": "uint256",
          "name": "_eventDate",
          "type": "uint256"
        },
        {
          "internalType": "string",
          "name": "_content",
          "type": "string"
        }
      ],
      "name": "addMCTItem",
      "outputs": [],
      "stateMutability": "nonpayable",
      "type": "function"
    },
    {
      "inputs": [
        {
          "internalType": "uint8",
          "name": "_startDay",
          "type": "uint8"
        },
        {
          "internalType": "uint8",
          "name": "_endDay",
          "type": "uint8"
        },
        {
          "internalType": "string",
          "name": "_content",
          "type": "string"
        }
      ],
      "name": "addSuggestion",
      "outputs": [],
      "stateMutability": "nonpayable",
      "type": "function"
    },
    {
      "inputs": [
        {
          "internalType": "string",
          "name": "_name",
          "type": "string"
        },
        {
          "internalType": "string",
          "name": "_emoji",
          "type": "string"
        }
      ],
      "name": "addSymptom",
      "outputs": [],
      "stateMutability": "nonpayable",
      "type": "function"
    },
    {
      "inputs": [],
      "name": "getLastMCTID",
      "outputs": [
        {
          "internalType": "uint256",
          "name": "",
          "type": "uint256"
        }
      ],
      "stateMutability": "view",
      "type": "function"
    },
    {
      "inputs": [],
      "name": "getMCTList",
      "outputs": [
        {
          "components": [
            {
              "internalType": "uint256",
              "name": "id",
              "type": "uint256"
            },
            {
              "internalType": "string",
              "name": "title",
              "type": "string"
            },
            {
              "internalType": "uint256",
              "name": "eventDate",
              "type": "uint256"
            },
            {
              "internalType": "string",
              "name": "content",
              "type": "string"
            }
          ],
          "internalType": "struct SheWell.MenstrualCycleTracking[]",
          "name": "",
          "type": "tuple[]"
        }
      ],
      "stateMutability": "view",
      "type": "function"
    },
    {
      "inputs": [],
      "name": "getMyUserInfo",
      "outputs": [
        {
          "components": [
            {
              "internalType": "string",
              "name": "name",
              "type": "string"
            },
            {
              "internalType": "string",
              "name": "content",
              "type": "string"
            },
            {
              "internalType": "bool",
              "name": "isExists",
              "type": "bool"
            }
          ],
          "internalType": "struct SheWell.User",
          "name": "",
          "type": "tuple"
        }
      ],
      "stateMutability": "view",
      "type": "function"
    },
    {
      "inputs": [],
      "name": "getSuggestions",
      "outputs": [
        {
          "components": [
            {
              "internalType": "uint8",
              "name": "startDay",
              "type": "uint8"
            },
            {
              "internalType": "uint8",
              "name": "endDay",
              "type": "uint8"
            },
            {
              "internalType": "string",
              "name": "content",
              "type": "string"
            }
          ],
          "internalType": "struct SheWell.Suggestion[]",
          "name": "",
          "type": "tuple[]"
        }
      ],
      "stateMutability": "view",
      "type": "function"
    },
    {
      "inputs": [],
      "name": "getSymptoms",
      "outputs": [
        {
          "components": [
            {
              "internalType": "uint256",
              "name": "id",
              "type": "uint256"
            },
            {
              "internalType": "string",
              "name": "name",
              "type": "string"
            },
            {
              "internalType": "string",
              "name": "emoji",
              "type": "string"
            }
          ],
          "internalType": "struct SheWell.Symptom[]",
          "name": "",
          "type": "tuple[]"
        }
      ],
      "stateMutability": "view",
      "type": "function"
    },
    {
      "inputs": [
        {
          "internalType": "uint256",
          "name": "_id",
          "type": "uint256"
        },
        {
          "internalType": "string",
          "name": "_title",
          "type": "string"
        },
        {
          "internalType": "string",
          "name": "_content",
          "type": "string"
        }
      ],
      "name": "modifyMCTItem",
      "outputs": [],
      "stateMutability": "nonpayable",
      "type": "function"
    },
    {
      "inputs": [],
      "name": "owner",
      "outputs": [
        {
          "internalType": "address",
          "name": "",
          "type": "address"
        }
      ],
      "stateMutability": "view",
      "type": "function"
    },
    {
      "inputs": [
        {
          "internalType": "string",
          "name": "_name",
          "type": "string"
        },
        {
          "internalType": "string",
          "name": "_content",
          "type": "string"
        }
      ],
      "name": "registerUser",
      "outputs": [],
      "stateMutability": "nonpayable",
      "type": "function"
    },
    {
      "inputs": [],
      "name": "renounceOwnership",
      "outputs": [],
      "stateMutability": "nonpayable",
      "type": "function"
    },
    {
      "inputs": [
        {
          "internalType": "address",
          "name": "newOwner",
          "type": "address"
        }
      ],
      "name": "transferOwnership",
      "outputs": [],
      "stateMutability": "nonpayable",
      "type": "function"
    }
  ],
  "bytecode": "0x608060405234801561001057600080fd5b5061002d61002261003260201b60201c565b61003a60201b60201c565b6100fe565b600033905090565b60008060009054906101000a900473ffffffffffffffffffffffffffffffffffffffff169050816000806101000a81548173ffffffffffffffffffffffffffffffffffffffff021916908373ffffffffffffffffffffffffffffffffffffffff1602179055508173ffffffffffffffffffffffffffffffffffffffff168173ffffffffffffffffffffffffffffffffffffffff167f8be0079c531659141344cd1fd0a4f28419497f9722a3daafe3b4186f6b6457e060405160405180910390a35050565b611eb18061010d6000396000f3fe608060405234801561001057600080fd5b50600436106100cf5760003560e01c806377aa6c631161008c578063cdf27e9011610066578063cdf27e90146101c6578063d9834750146101e4578063e6ca0a2d14610202578063f2fde38b1461021e576100cf565b806377aa6c63146101705780638da5cb5b1461018c578063a1cce609146101aa576100cf565b8063110effb6146100d45780631d2e4afd146100f257806359d9b5601461010e5780635ad3da791461012a578063662c309314610148578063715018a614610166575b600080fd5b6100dc61023a565b6040516100e991906111bb565b60405180910390f35b61010c60048036038101906101079190611326565b6103f5565b005b610128600480360381019061012391906113d4565b6104a5565b005b610132610653565b60405161013f91906114d1565b60405180910390f35b6101506107e9565b60405161015d919061162e565b60405180910390f35b61016e6109bd565b005b61018a60048036038101906101859190611326565b6109d1565b005b610194610a74565b6040516101a19190611691565b60405180910390f35b6101c460048036038101906101bf91906116ac565b610a9d565b005b6101ce610b8c565b6040516101db9190611850565b60405180910390f35b6101ec610d19565b6040516101f99190611881565b60405180910390f35b61021c600480360381019061021791906118c8565b610d36565b005b61023860048036038101906102339190611963565b610de9565b005b6060600660003373ffffffffffffffffffffffffffffffffffffffff1673ffffffffffffffffffffffffffffffffffffffff16815260200190815260200160002060020160009054906101000a900460ff16156102cc576040517f08c379a00000000000000000000000000000000000000000000000000000000081526004016102c3906119ed565b60405180910390fd5b6004805480602002602001604051908101604052809291908181526020016000905b828210156103ec57838290600052602060002090600202016040518060600160405290816000820160009054906101000a900460ff1660ff1660ff1681526020016000820160019054906101000a900460ff1660ff1660ff16815260200160018201805461035b90611a3c565b80601f016020809104026020016040519081016040528092919081815260200182805461038790611a3c565b80156103d45780601f106103a9576101008083540402835291602001916103d4565b820191906000526020600020905b8154815290600101906020018083116103b757829003601f168201915b505050505081525050815260200190600101906102ee565b50505050905090565b604051806060016040528083815260200182815260200160011515815250600660003373ffffffffffffffffffffffffffffffffffffffff1673ffffffffffffffffffffffffffffffffffffffff16815260200190815260200160002060008201518160000190816104679190611c19565b50602082015181600101908161047d9190611c19565b5060408201518160020160006101000a81548160ff0219169083151502179055509050505050565b60005b600560003373ffffffffffffffffffffffffffffffffffffffff1673ffffffffffffffffffffffffffffffffffffffff1681526020019081526020016000208054905081101561064d5783600560003373ffffffffffffffffffffffffffffffffffffffff1673ffffffffffffffffffffffffffffffffffffffff168152602001908152602001600020828154811061054457610543611ceb565b5b906000526020600020906004020160000154036106405782600560003373ffffffffffffffffffffffffffffffffffffffff1673ffffffffffffffffffffffffffffffffffffffff16815260200190815260200160002082815481106105ad576105ac611ceb565b5b906000526020600020906004020160010190816105ca9190611c19565b5081600560003373ffffffffffffffffffffffffffffffffffffffff1673ffffffffffffffffffffffffffffffffffffffff168152602001908152602001600020828154811061061d5761061c611ceb565b5b9060005260206000209060040201600301908161063a9190611c19565b5061064d565b80806001019150506104a8565b50505050565b61065b610fda565b600660003373ffffffffffffffffffffffffffffffffffffffff1673ffffffffffffffffffffffffffffffffffffffff1681526020019081526020016000206040518060600160405290816000820180546106b590611a3c565b80601f01602080910402602001604051908101604052809291908181526020018280546106e190611a3c565b801561072e5780601f106107035761010080835404028352916020019161072e565b820191906000526020600020905b81548152906001019060200180831161071157829003601f168201915b5050505050815260200160018201805461074790611a3c565b80601f016020809104026020016040519081016040528092919081815260200182805461077390611a3c565b80156107c05780601f10610795576101008083540402835291602001916107c0565b820191906000526020600020905b8154815290600101906020018083116107a357829003601f168201915b505050505081526020016002820160009054906101000a900460ff161515151581525050905090565b6060600560003373ffffffffffffffffffffffffffffffffffffffff1673ffffffffffffffffffffffffffffffffffffffff168152602001908152602001600020805480602002602001604051908101604052809291908181526020016000905b828210156109b457838290600052602060002090600402016040518060800160405290816000820154815260200160018201805461088790611a3c565b80601f01602080910402602001604051908101604052809291908181526020018280546108b390611a3c565b80156109005780601f106108d557610100808354040283529160200191610900565b820191906000526020600020905b8154815290600101906020018083116108e357829003601f168201915b505050505081526020016002820154815260200160038201805461092390611a3c565b80601f016020809104026020016040519081016040528092919081815260200182805461094f90611a3c565b801561099c5780601f106109715761010080835404028352916020019161099c565b820191906000526020600020905b81548152906001019060200180831161097f57829003601f168201915b5050505050815250508152602001906001019061084a565b50505050905090565b6109c5610e6c565b6109cf6000610eea565b565b6109d9610e6c565b60006109e56001610fae565b905060036040518060600160405280838152602001858152602001848152509080600181540180825580915050600190039060005260206000209060030201600090919091909150600082015181600001556020820151816001019081610a4c9190611c19565b506040820151816002019081610a629190611c19565b505050610a6f6001610fbc565b505050565b60008060009054906101000a900473ffffffffffffffffffffffffffffffffffffffff16905090565b6000610aa96002610fae565b905060006040518060800160405280838152602001868152602001858152602001848152509050600560003373ffffffffffffffffffffffffffffffffffffffff1673ffffffffffffffffffffffffffffffffffffffff168152602001908152602001600020819080600181540180825580915050600190039060005260206000209060040201600090919091909150600082015181600001556020820151816001019081610b589190611c19565b50604082015181600201556060820151816003019081610b789190611c19565b505050610b856002610fbc565b5050505050565b60606003805480602002602001604051908101604052809291908181526020016000905b82821015610d10578382906000526020600020906003020160405180606001604052908160008201548152602001600182018054610bed90611a3c565b80601f0160208091040260200160405190810160405280929190818152602001828054610c1990611a3c565b8015610c665780601f10610c3b57610100808354040283529160200191610c66565b820191906000526020600020905b815481529060010190602001808311610c4957829003601f168201915b50505050508152602001600282018054610c7f90611a3c565b80601f0160208091040260200160405190810160405280929190818152602001828054610cab90611a3c565b8015610cf85780601f10610ccd57610100808354040283529160200191610cf8565b820191906000526020600020905b815481529060010190602001808311610cdb57829003601f168201915b50505050508152505081526020019060010190610bb0565b50505050905090565b60006001610d276002610fae565b610d319190611d49565b905090565b610d3e610e6c565b600460405180606001604052808560ff1681526020018460ff16815260200183815250908060018154018082558091505060019003906000526020600020906002020160009091909190915060008201518160000160006101000a81548160ff021916908360ff16021790555060208201518160000160016101000a81548160ff021916908360ff1602179055506040820151816001019081610de19190611c19565b505050505050565b610df1610e6c565b600073ffffffffffffffffffffffffffffffffffffffff168173ffffffffffffffffffffffffffffffffffffffff1603610e60576040517f08c379a0000000000000000000000000000000000000000000000000000000008152600401610e5790611def565b60405180910390fd5b610e6981610eea565b50565b610e74610fd2565b73ffffffffffffffffffffffffffffffffffffffff16610e92610a74565b73ffffffffffffffffffffffffffffffffffffffff1614610ee8576040517f08c379a0000000000000000000000000000000000000000000000000000000008152600401610edf90611e5b565b60405180910390fd5b565b60008060009054906101000a900473ffffffffffffffffffffffffffffffffffffffff169050816000806101000a81548173ffffffffffffffffffffffffffffffffffffffff021916908373ffffffffffffffffffffffffffffffffffffffff1602179055508173ffffffffffffffffffffffffffffffffffffffff168173ffffffffffffffffffffffffffffffffffffffff167f8be0079c531659141344cd1fd0a4f28419497f9722a3daafe3b4186f6b6457e060405160405180910390a35050565b600081600001549050919050565b6001816000016000828254019250508190555050565b600033905090565b604051806060016040528060608152602001606081526020016000151581525090565b600081519050919050565b600082825260208201905092915050565b6000819050602082019050919050565b600060ff82169050919050565b61103f81611029565b82525050565b600081519050919050565b600082825260208201905092915050565b60005b8381101561107f578082015181840152602081019050611064565b60008484015250505050565b6000601f19601f8301169050919050565b60006110a782611045565b6110b18185611050565b93506110c1818560208601611061565b6110ca8161108b565b840191505092915050565b60006060830160008301516110ed6000860182611036565b5060208301516111006020860182611036565b5060408301518482036040860152611118828261109c565b9150508091505092915050565b600061113183836110d5565b905092915050565b6000602082019050919050565b600061115182610ffd565b61115b8185611008565b93508360208202850161116d85611019565b8060005b858110156111a9578484038952815161118a8582611125565b945061119583611139565b925060208a01995050600181019050611171565b50829750879550505050505092915050565b600060208201905081810360008301526111d58184611146565b905092915050565b6000604051905090565b600080fd5b600080fd5b600080fd5b600080fd5b7f4e487b7100000000000000000000000000000000000000000000000000000000600052604160045260246000fd5b6112338261108b565b810181811067ffffffffffffffff82111715611252576112516111fb565b5b80604052505050565b60006112656111dd565b9050611271828261122a565b919050565b600067ffffffffffffffff821115611291576112906111fb565b5b61129a8261108b565b9050602081019050919050565b82818337600083830152505050565b60006112c96112c484611276565b61125b565b9050828152602081018484840111156112e5576112e46111f6565b5b6112f08482856112a7565b509392505050565b600082601f83011261130d5761130c6111f1565b5b813561131d8482602086016112b6565b91505092915050565b6000806040838503121561133d5761133c6111e7565b5b600083013567ffffffffffffffff81111561135b5761135a6111ec565b5b611367858286016112f8565b925050602083013567ffffffffffffffff811115611388576113876111ec565b5b611394858286016112f8565b9150509250929050565b6000819050919050565b6113b18161139e565b81146113bc57600080fd5b50565b6000813590506113ce816113a8565b92915050565b6000806000606084860312156113ed576113ec6111e7565b5b60006113fb868287016113bf565b935050602084013567ffffffffffffffff81111561141c5761141b6111ec565b5b611428868287016112f8565b925050604084013567ffffffffffffffff811115611449576114486111ec565b5b611455868287016112f8565b9150509250925092565b60008115159050919050565b6114748161145f565b82525050565b60006060830160008301518482036000860152611497828261109c565b915050602083015184820360208601526114b1828261109c565b91505060408301516114c6604086018261146b565b508091505092915050565b600060208201905081810360008301526114eb818461147a565b905092915050565b600081519050919050565b600082825260208201905092915050565b6000819050602082019050919050565b6115288161139e565b82525050565b6000608083016000830151611546600086018261151f565b506020830151848203602086015261155e828261109c565b9150506040830151611573604086018261151f565b506060830151848203606086015261158b828261109c565b9150508091505092915050565b60006115a4838361152e565b905092915050565b6000602082019050919050565b60006115c4826114f3565b6115ce81856114fe565b9350836020820285016115e08561150f565b8060005b8581101561161c57848403895281516115fd8582611598565b9450611608836115ac565b925060208a019950506001810190506115e4565b50829750879550505050505092915050565b6000602082019050818103600083015261164881846115b9565b905092915050565b600073ffffffffffffffffffffffffffffffffffffffff82169050919050565b600061167b82611650565b9050919050565b61168b81611670565b82525050565b60006020820190506116a66000830184611682565b92915050565b6000806000606084860312156116c5576116c46111e7565b5b600084013567ffffffffffffffff8111156116e3576116e26111ec565b5b6116ef868287016112f8565b9350506020611700868287016113bf565b925050604084013567ffffffffffffffff811115611721576117206111ec565b5b61172d868287016112f8565b9150509250925092565b600081519050919050565b600082825260208201905092915050565b6000819050602082019050919050565b600060608301600083015161177b600086018261151f565b5060208301518482036020860152611793828261109c565b915050604083015184820360408601526117ad828261109c565b9150508091505092915050565b60006117c68383611763565b905092915050565b6000602082019050919050565b60006117e682611737565b6117f08185611742565b93508360208202850161180285611753565b8060005b8581101561183e578484038952815161181f85826117ba565b945061182a836117ce565b925060208a01995050600181019050611806565b50829750879550505050505092915050565b6000602082019050818103600083015261186a81846117db565b905092915050565b61187b8161139e565b82525050565b60006020820190506118966000830184611872565b92915050565b6118a581611029565b81146118b057600080fd5b50565b6000813590506118c28161189c565b92915050565b6000806000606084860312156118e1576118e06111e7565b5b60006118ef868287016118b3565b9350506020611900868287016118b3565b925050604084013567ffffffffffffffff811115611921576119206111ec565b5b61192d868287016112f8565b9150509250925092565b61194081611670565b811461194b57600080fd5b50565b60008135905061195d81611937565b92915050565b600060208284031215611979576119786111e7565b5b60006119878482850161194e565b91505092915050565b600082825260208201905092915050565b7f55736572206e6f74207265676973746572656400000000000000000000000000600082015250565b60006119d7601383611990565b91506119e2826119a1565b602082019050919050565b60006020820190508181036000830152611a06816119ca565b9050919050565b7f4e487b7100000000000000000000000000000000000000000000000000000000600052602260045260246000fd5b60006002820490506001821680611a5457607f821691505b602082108103611a6757611a66611a0d565b5b50919050565b60008190508160005260206000209050919050565b60006020601f8301049050919050565b600082821b905092915050565b600060088302611acf7fffffffffffffffffffffffffffffffffffffffffffffffffffffffffffffffff82611a92565b611ad98683611a92565b95508019841693508086168417925050509392505050565b6000819050919050565b6000611b16611b11611b0c8461139e565b611af1565b61139e565b9050919050565b6000819050919050565b611b3083611afb565b611b44611b3c82611b1d565b848454611a9f565b825550505050565b600090565b611b59611b4c565b611b64818484611b27565b505050565b5b81811015611b8857611b7d600082611b51565b600181019050611b6a565b5050565b601f821115611bcd57611b9e81611a6d565b611ba784611a82565b81016020851015611bb6578190505b611bca611bc285611a82565b830182611b69565b50505b505050565b600082821c905092915050565b6000611bf060001984600802611bd2565b1980831691505092915050565b6000611c098383611bdf565b9150826002028217905092915050565b611c2282611045565b67ffffffffffffffff811115611c3b57611c3a6111fb565b5b611c458254611a3c565b611c50828285611b8c565b600060209050601f831160018114611c835760008415611c71578287015190505b611c7b8582611bfd565b865550611ce3565b601f198416611c9186611a6d565b60005b82811015611cb957848901518255600182019150602085019450602081019050611c94565b86831015611cd65784890151611cd2601f891682611bdf565b8355505b6001600288020188555050505b505050505050565b7f4e487b7100000000000000000000000000000000000000000000000000000000600052603260045260246000fd5b7f4e487b7100000000000000000000000000000000000000000000000000000000600052601160045260246000fd5b6000611d548261139e565b9150611d5f8361139e565b9250828203905081811115611d7757611d76611d1a565b5b92915050565b7f4f776e61626c653a206e6577206f776e657220697320746865207a65726f206160008201527f6464726573730000000000000000000000000000000000000000000000000000602082015250565b6000611dd9602683611990565b9150611de482611d7d565b604082019050919050565b60006020820190508181036000830152611e0881611dcc565b9050919050565b7f4f776e61626c653a2063616c6c6572206973206e6f7420746865206f776e6572600082015250565b6000611e45602083611990565b9150611e5082611e0f565b602082019050919050565b60006020820190508181036000830152611e7481611e38565b905091905056fea2646970667358221220f537d172fba9a960d97a1f669d48f23946b67403094b57bfd7dee6ec84109bea64736f6c63430008180033",
  "linkReferences": {},
  "deployedLinkReferences": {}
}