{
  "_format": "hh-sol-artifact-1",
  "contractName": "SheWell",
  "sourceName": "contracts/SheWell.sol",
  "abi": [
    {
      "inputs": [],
      "stateMutability": "nonpayable",
      "type": "constructor"
    },
    {
      "inputs": [],
      "name": "getMyUserInfo",
      "outputs": [
        {
          "components": [
            {
              "internalType": "string",
              "name": "name",
              "type": "string"
            },
            {
              "internalType": "string",
              "name": "content",
              "type": "string"
            },
            {
              "internalType": "bool",
              "name": "isExists",
              "type": "bool"
            }
          ],
          "internalType": "struct SheWell.User",
          "name": "",
          "type": "tuple"
        }
      ],
      "stateMutability": "view",
      "type": "function"
    },
    {
      "inputs": [
        {
          "internalType": "string",
          "name": "_name",
          "type": "string"
        },
        {
          "internalType": "string",
          "name": "_content",
          "type": "string"
        }
      ],
      "name": "registerUser",
      "outputs": [],
      "stateMutability": "nonpayable",
      "type": "function"
    }
  ],
  "bytecode": "0x608060405234801561001057600080fd5b506108df806100206000396000f3fe608060405234801561001057600080fd5b50600436106100365760003560e01c80631d2e4afd1461003b5780635ad3da7914610057575b600080fd5b61005560048036038101906100509190610436565b610075565b005b61005f610124565b60405161006c919061059f565b60405180910390f35b6040518060600160405280838152602001828152602001600115158152506000803373ffffffffffffffffffffffffffffffffffffffff1673ffffffffffffffffffffffffffffffffffffffff16815260200190815260200160002060008201518160000190816100e691906107d7565b5060208201518160010190816100fc91906107d7565b5060408201518160020160006101000a81548160ff0219169083151502179055509050505050565b61012c6102b9565b6000803373ffffffffffffffffffffffffffffffffffffffff1673ffffffffffffffffffffffffffffffffffffffff168152602001908152602001600020604051806060016040529081600082018054610185906105f0565b80601f01602080910402602001604051908101604052809291908181526020018280546101b1906105f0565b80156101fe5780601f106101d3576101008083540402835291602001916101fe565b820191906000526020600020905b8154815290600101906020018083116101e157829003601f168201915b50505050508152602001600182018054610217906105f0565b80601f0160208091040260200160405190810160405280929190818152602001828054610243906105f0565b80156102905780601f1061026557610100808354040283529160200191610290565b820191906000526020600020905b81548152906001019060200180831161027357829003601f168201915b505050505081526020016002820160009054906101000a900460ff161515151581525050905090565b604051806060016040528060608152602001606081526020016000151581525090565b6000604051905090565b600080fd5b600080fd5b600080fd5b600080fd5b6000601f19601f8301169050919050565b7f4e487b7100000000000000000000000000000000000000000000000000000000600052604160045260246000fd5b610343826102fa565b810181811067ffffffffffffffff821117156103625761036161030b565b5b80604052505050565b60006103756102dc565b9050610381828261033a565b919050565b600067ffffffffffffffff8211156103a1576103a061030b565b5b6103aa826102fa565b9050602081019050919050565b82818337600083830152505050565b60006103d96103d484610386565b61036b565b9050828152602081018484840111156103f5576103f46102f5565b5b6104008482856103b7565b509392505050565b600082601f83011261041d5761041c6102f0565b5b813561042d8482602086016103c6565b91505092915050565b6000806040838503121561044d5761044c6102e6565b5b600083013567ffffffffffffffff81111561046b5761046a6102eb565b5b61047785828601610408565b925050602083013567ffffffffffffffff811115610498576104976102eb565b5b6104a485828601610408565b9150509250929050565b600081519050919050565b600082825260208201905092915050565b60005b838110156104e85780820151818401526020810190506104cd565b60008484015250505050565b60006104ff826104ae565b61050981856104b9565b93506105198185602086016104ca565b610522816102fa565b840191505092915050565b60008115159050919050565b6105428161052d565b82525050565b6000606083016000830151848203600086015261056582826104f4565b9150506020830151848203602086015261057f82826104f4565b91505060408301516105946040860182610539565b508091505092915050565b600060208201905081810360008301526105b98184610548565b905092915050565b7f4e487b7100000000000000000000000000000000000000000000000000000000600052602260045260246000fd5b6000600282049050600182168061060857607f821691505b60208210810361061b5761061a6105c1565b5b50919050565b60008190508160005260206000209050919050565b60006020601f8301049050919050565b600082821b905092915050565b6000600883026106837fffffffffffffffffffffffffffffffffffffffffffffffffffffffffffffffff82610646565b61068d8683610646565b95508019841693508086168417925050509392505050565b6000819050919050565b6000819050919050565b60006106d46106cf6106ca846106a5565b6106af565b6106a5565b9050919050565b6000819050919050565b6106ee836106b9565b6107026106fa826106db565b848454610653565b825550505050565b600090565b61071761070a565b6107228184846106e5565b505050565b5b818110156107465761073b60008261070f565b600181019050610728565b5050565b601f82111561078b5761075c81610621565b61076584610636565b81016020851015610774578190505b61078861078085610636565b830182610727565b50505b505050565b600082821c905092915050565b60006107ae60001984600802610790565b1980831691505092915050565b60006107c7838361079d565b9150826002028217905092915050565b6107e0826104ae565b67ffffffffffffffff8111156107f9576107f861030b565b5b61080382546105f0565b61080e82828561074a565b600060209050601f831160018114610841576000841561082f578287015190505b61083985826107bb565b8655506108a1565b601f19841661084f86610621565b60005b8281101561087757848901518255600182019150602085019450602081019050610852565b868310156108945784890151610890601f89168261079d565b8355505b6001600288020188555050505b50505050505056fea2646970667358221220bc52d86d3fcc6f7ca11eb2d2b80120aa7b2d4b53d5bf39d272dc760d953628da64736f6c63430008180033",
  "linkReferences": {},
  "deployedLinkReferences": {}
}